{
  "contractName": "SupplyChain",
  "abi": [
    {
      "constant": false,
      "inputs": [
        {
          "name": "account",
          "type": "address"
        }
      ],
      "name": "addWinemaker",
      "outputs": [],
      "payable": false,
      "stateMutability": "nonpayable",
      "type": "function",
      "signature": "0x0064a0a3"
    },
    {
      "constant": false,
      "inputs": [
        {
          "name": "account",
          "type": "address"
        }
      ],
      "name": "addConsumer",
      "outputs": [],
      "payable": false,
      "stateMutability": "nonpayable",
      "type": "function",
      "signature": "0x112940f9"
    },
    {
      "constant": false,
      "inputs": [],
      "name": "unpause",
      "outputs": [],
      "payable": false,
      "stateMutability": "nonpayable",
      "type": "function",
      "signature": "0x3f4ba83a"
    },
    {
      "constant": true,
      "inputs": [],
      "name": "paused",
      "outputs": [
        {
          "name": "",
          "type": "bool"
        }
      ],
      "payable": false,
      "stateMutability": "view",
      "type": "function",
      "signature": "0x5c975abb"
    },
    {
      "constant": false,
      "inputs": [],
      "name": "renounceConsumer",
      "outputs": [],
      "payable": false,
      "stateMutability": "nonpayable",
      "type": "function",
      "signature": "0x61e6982d"
    },
    {
      "constant": false,
      "inputs": [],
      "name": "renounceOwnership",
      "outputs": [],
      "payable": false,
      "stateMutability": "nonpayable",
      "type": "function",
      "signature": "0x715018a6"
    },
    {
      "constant": false,
      "inputs": [],
      "name": "renounceWinemaker",
      "outputs": [],
      "payable": false,
      "stateMutability": "nonpayable",
      "type": "function",
      "signature": "0x76410cb5"
    },
    {
      "constant": false,
      "inputs": [],
      "name": "renounceWineMerchant",
      "outputs": [],
      "payable": false,
      "stateMutability": "nonpayable",
      "type": "function",
      "signature": "0x82b489f8"
    },
    {
      "constant": true,
      "inputs": [
        {
          "name": "account",
          "type": "address"
        }
      ],
      "name": "isConsumer",
      "outputs": [
        {
          "name": "",
          "type": "bool"
        }
      ],
      "payable": false,
      "stateMutability": "view",
      "type": "function",
      "signature": "0x834ff739"
    },
    {
      "constant": false,
      "inputs": [],
      "name": "pause",
      "outputs": [],
      "payable": false,
      "stateMutability": "nonpayable",
      "type": "function",
      "signature": "0x8456cb59"
    },
    {
      "constant": true,
      "inputs": [],
      "name": "owner",
      "outputs": [
        {
          "name": "",
          "type": "address"
        }
      ],
      "payable": false,
      "stateMutability": "view",
      "type": "function",
      "signature": "0x8da5cb5b"
    },
    {
      "constant": true,
      "inputs": [],
      "name": "isOwner",
      "outputs": [
        {
          "name": "",
          "type": "bool"
        }
      ],
      "payable": false,
      "stateMutability": "view",
      "type": "function",
      "signature": "0x8f32d59b"
    },
    {
      "constant": true,
      "inputs": [
        {
          "name": "account",
          "type": "address"
        }
      ],
      "name": "isWinemaker",
      "outputs": [
        {
          "name": "",
          "type": "bool"
        }
      ],
      "payable": false,
      "stateMutability": "view",
      "type": "function",
      "signature": "0xa7a2d35e"
    },
    {
      "constant": true,
      "inputs": [
        {
          "name": "account",
          "type": "address"
        }
      ],
      "name": "isWineMerchant",
      "outputs": [
        {
          "name": "",
          "type": "bool"
        }
      ],
      "payable": false,
      "stateMutability": "view",
      "type": "function",
      "signature": "0xb38e69e5"
    },
    {
      "constant": false,
      "inputs": [
        {
          "name": "account",
          "type": "address"
        }
      ],
      "name": "addWineMerchant",
      "outputs": [],
      "payable": false,
      "stateMutability": "nonpayable",
      "type": "function",
      "signature": "0xe196768e"
    },
    {
      "constant": false,
      "inputs": [
        {
          "name": "newOwner",
          "type": "address"
        }
      ],
      "name": "transferOwnership",
      "outputs": [],
      "payable": false,
      "stateMutability": "nonpayable",
      "type": "function",
      "signature": "0xf2fde38b"
    },
    {
      "inputs": [],
      "payable": true,
      "stateMutability": "payable",
      "type": "constructor",
      "signature": "constructor"
    },
    {
      "anonymous": false,
      "inputs": [
        {
          "indexed": false,
          "name": "upc",
          "type": "uint256"
        }
      ],
      "name": "Made",
      "type": "event",
      "signature": "0xeb8109592a383473c76afa62041a6dbabac0ca80d859bbdffb13c5a70c454b90"
    },
    {
      "anonymous": false,
      "inputs": [
        {
          "indexed": false,
          "name": "upc",
          "type": "uint256"
        }
      ],
      "name": "Aged",
      "type": "event",
      "signature": "0xfa795f995e12c074777bab440425afc98477f6cfceceba5ca50feae5089e59ce"
    },
    {
      "anonymous": false,
      "inputs": [
        {
          "indexed": false,
          "name": "upc",
          "type": "uint256"
        }
      ],
      "name": "Bottled",
      "type": "event",
      "signature": "0x8aff1823bf9f30e2f7eacb17de47cc2917592a34188a0b47c0c228c82c38fc54"
    },
    {
      "anonymous": false,
      "inputs": [
        {
          "indexed": false,
          "name": "upc",
          "type": "uint256"
        }
      ],
      "name": "Packed",
      "type": "event",
      "signature": "0x9b3b66e2380b690bae22c73ef1428fb0c91e72fe14a4b6defa13035214187aff"
    },
    {
      "anonymous": false,
      "inputs": [
        {
          "indexed": false,
          "name": "upc",
          "type": "uint256"
        }
      ],
      "name": "ForSale",
      "type": "event",
      "signature": "0xa96ae0fc3224ebd79eebfe54bd130cc9cb94416cddd1f2386115e00b72532468"
    },
    {
      "anonymous": false,
      "inputs": [
        {
          "indexed": false,
          "name": "upc",
          "type": "uint256"
        }
      ],
      "name": "Sold",
      "type": "event",
      "signature": "0x92f64ca637d023f354075a4be751b169c1a8a9ccb6d33cdd0cb3520543995727"
    },
    {
      "anonymous": false,
      "inputs": [
        {
          "indexed": false,
          "name": "upc",
          "type": "uint256"
        }
      ],
      "name": "Shipped",
      "type": "event",
      "signature": "0xf00b9a5725b80c54016f42114f6ed7792d22eecb116011c4afac29c57bef6c95"
    },
    {
      "anonymous": false,
      "inputs": [
        {
          "indexed": false,
          "name": "upc",
          "type": "uint256"
        }
      ],
      "name": "Received",
      "type": "event",
      "signature": "0xa8142743f8f70a4c26f3691cf4ed59718381fb2f18070ec52be1f1022d855557"
    },
    {
      "anonymous": false,
      "inputs": [
        {
          "indexed": false,
          "name": "upc",
          "type": "uint256"
        }
      ],
      "name": "ForPurchase",
      "type": "event",
      "signature": "0x70c8907adbc70c123be129c28b7b5fa349be808d31b8acff2969a68651b1a613"
    },
    {
      "anonymous": false,
      "inputs": [
        {
          "indexed": false,
          "name": "upc",
          "type": "uint256"
        }
      ],
      "name": "Purchased",
      "type": "event",
      "signature": "0x653d56639fee6b566a5c804764e9689de38645f0b733df89a36a1b7b42173dd8"
    },
    {
      "anonymous": false,
      "inputs": [
        {
          "indexed": false,
          "name": "upc",
          "type": "uint256"
        }
      ],
      "name": "Drunk",
      "type": "event",
      "signature": "0xbf38bfcdeeeb6820d8c2698405c403848b5c3fc0bc7dba5988466b55f424f51b"
    },
    {
      "anonymous": false,
      "inputs": [
        {
          "indexed": true,
          "name": "account",
          "type": "address"
        }
      ],
      "name": "WineMerchantAdded",
      "type": "event",
      "signature": "0x6bc466ddf8bd40475fdbc6f9b2de8c103d9c1cebcdf26fba81a42b5f5ce88f1e"
    },
    {
      "anonymous": false,
      "inputs": [
        {
          "indexed": true,
          "name": "account",
          "type": "address"
        }
      ],
      "name": "WineMerchantRemoved",
      "type": "event",
      "signature": "0xefc5acff2602ca17d8040a490446dd5efbaea2995454305bd2f0af1a10bf6937"
    },
    {
      "anonymous": false,
      "inputs": [
        {
          "indexed": true,
          "name": "account",
          "type": "address"
        }
      ],
      "name": "WinemakerAdded",
      "type": "event",
      "signature": "0x6aff2d1ad0280d73c0aeb6b7f6a5efcfde859651f09233c1356f94d0116ea662"
    },
    {
      "anonymous": false,
      "inputs": [
        {
          "indexed": true,
          "name": "account",
          "type": "address"
        }
      ],
      "name": "WinemakerRemoved",
      "type": "event",
      "signature": "0xc4aab0426e55302866fc0731265c0e1822c38784d55adc66130827772c581862"
    },
    {
      "anonymous": false,
      "inputs": [
        {
          "indexed": true,
          "name": "account",
          "type": "address"
        }
      ],
      "name": "ConsumerAdded",
      "type": "event",
      "signature": "0x28b26e7a3d20aedbc5f8f2ebf7da671c0491723a2b78f47a097b0e46dee07142"
    },
    {
      "anonymous": false,
      "inputs": [
        {
          "indexed": true,
          "name": "account",
          "type": "address"
        }
      ],
      "name": "ConsumerRemoved",
      "type": "event",
      "signature": "0xe3f5ed5f263f1f01764a96edfc7d025f511ec5f7d180e8816908b78bcf74f098"
    },
    {
      "anonymous": false,
      "inputs": [
        {
          "indexed": false,
          "name": "account",
          "type": "address"
        }
      ],
      "name": "Paused",
      "type": "event",
      "signature": "0x62e78cea01bee320cd4e420270b5ea74000d11b0c9f74754ebdbfc544b05a258"
    },
    {
      "anonymous": false,
      "inputs": [
        {
          "indexed": false,
          "name": "account",
          "type": "address"
        }
      ],
      "name": "Unpaused",
      "type": "event",
      "signature": "0x5db9ee0a495bf2e6ff9c91a7834c1ba4fdd244a5e8aa4e537bd38aeae4b073aa"
    },
    {
      "anonymous": false,
      "inputs": [
        {
          "indexed": true,
          "name": "previousOwner",
          "type": "address"
        },
        {
          "indexed": true,
          "name": "newOwner",
          "type": "address"
        }
      ],
      "name": "OwnershipTransferred",
      "type": "event",
      "signature": "0x8be0079c531659141344cd1fd0a4f28419497f9722a3daafe3b4186f6b6457e0"
    },
    {
      "constant": false,
      "inputs": [],
      "name": "kill",
      "outputs": [],
      "payable": false,
      "stateMutability": "nonpayable",
      "type": "function",
      "signature": "0x41c0e1b5"
    },
    {
      "constant": false,
      "inputs": [
        {
          "name": "_upc",
          "type": "uint256"
        },
        {
          "name": "_originWinemakerName",
          "type": "string"
        },
        {
          "name": "_originWinemakerInformation",
          "type": "string"
        },
        {
          "name": "_originWinemakerLatitude",
          "type": "string"
        },
        {
          "name": "_origineWinemakerLongitude",
          "type": "string"
        },
        {
          "name": "_productNotes",
          "type": "string"
        }
      ],
      "name": "makeWine",
      "outputs": [],
      "payable": false,
      "stateMutability": "nonpayable",
      "type": "function",
      "signature": "0xbccefb34"
    },
    {
      "constant": false,
      "inputs": [
        {
          "name": "_upc",
          "type": "uint256"
        },
        {
          "name": "monthsAged",
          "type": "uint256"
        }
      ],
      "name": "ageWine",
      "outputs": [],
      "payable": false,
      "stateMutability": "nonpayable",
      "type": "function",
      "signature": "0x9c190f3e"
    },
    {
      "constant": false,
      "inputs": [
        {
          "name": "_upc",
          "type": "uint256"
        }
      ],
      "name": "bottleWine",
      "outputs": [],
      "payable": false,
      "stateMutability": "nonpayable",
      "type": "function",
      "signature": "0x933e3ea3"
    },
    {
      "constant": false,
      "inputs": [
        {
          "name": "_upc",
          "type": "uint256"
        }
      ],
      "name": "packWine",
      "outputs": [],
      "payable": false,
      "stateMutability": "nonpayable",
      "type": "function",
      "signature": "0x7b97bb34"
    },
    {
      "constant": false,
      "inputs": [
        {
          "name": "_upc",
          "type": "uint256"
        },
        {
          "name": "_price",
          "type": "uint256"
        }
      ],
      "name": "sellWine",
      "outputs": [],
      "payable": false,
      "stateMutability": "nonpayable",
      "type": "function",
      "signature": "0x1987884d"
    },
    {
      "constant": false,
      "inputs": [
        {
          "name": "_upc",
          "type": "uint256"
        }
      ],
      "name": "buyWine",
      "outputs": [],
      "payable": true,
      "stateMutability": "payable",
      "type": "function",
      "signature": "0xcbcf2349"
    },
    {
      "constant": false,
      "inputs": [
        {
          "name": "_upc",
          "type": "uint256"
        }
      ],
      "name": "shipWine",
      "outputs": [],
      "payable": false,
      "stateMutability": "nonpayable",
      "type": "function",
      "signature": "0x26820e7e"
    },
    {
      "constant": false,
      "inputs": [
        {
          "name": "_upc",
          "type": "uint256"
        }
      ],
      "name": "receiveWine",
      "outputs": [],
      "payable": false,
      "stateMutability": "nonpayable",
      "type": "function",
      "signature": "0xd1e74044"
    },
    {
      "constant": false,
      "inputs": [
        {
          "name": "_upc",
          "type": "uint256"
        },
        {
          "name": "_price",
          "type": "uint256"
        }
      ],
      "name": "setOnPurchaseWine",
      "outputs": [],
      "payable": false,
      "stateMutability": "nonpayable",
      "type": "function",
      "signature": "0x8b02c226"
    },
    {
      "constant": false,
      "inputs": [
        {
          "name": "_upc",
          "type": "uint256"
        }
      ],
      "name": "purchaseWine",
      "outputs": [],
      "payable": true,
      "stateMutability": "payable",
      "type": "function",
      "signature": "0x04fee1eb"
    },
    {
      "constant": false,
      "inputs": [
        {
          "name": "_upc",
          "type": "uint256"
        }
      ],
      "name": "drinkWine",
      "outputs": [],
      "payable": false,
      "stateMutability": "nonpayable",
      "type": "function",
      "signature": "0x5a5af9e3"
    },
    {
      "constant": true,
      "inputs": [
        {
          "name": "_upc",
          "type": "uint256"
        }
      ],
      "name": "fetchWineBufferOne",
      "outputs": [
        {
          "name": "wineSKU",
          "type": "uint256"
        },
        {
          "name": "wineUPC",
          "type": "uint256"
        },
        {
          "name": "ownerID",
          "type": "address"
        },
        {
          "name": "originWinemakerID",
          "type": "address"
        },
        {
          "name": "originWinemakerName",
          "type": "string"
        },
        {
          "name": "originWinemakerInformation",
          "type": "string"
        },
        {
          "name": "originWinemakerLatitude",
          "type": "string"
        },
        {
          "name": "originWinemakerLongitude",
          "type": "string"
        }
      ],
      "payable": false,
      "stateMutability": "view",
      "type": "function",
      "signature": "0xea993b28"
    },
    {
      "constant": true,
      "inputs": [
        {
          "name": "_upc",
          "type": "uint256"
        }
      ],
      "name": "fetchWineBufferTwo",
      "outputs": [
        {
          "name": "wineSKU",
          "type": "uint256"
        },
        {
          "name": "wineUPC",
          "type": "uint256"
        },
        {
          "name": "productID",
          "type": "uint256"
        },
        {
          "name": "productPrice",
          "type": "uint256"
        },
        {
          "name": "productFinalPrice",
          "type": "uint256"
        },
        {
          "name": "monthsAged",
          "type": "uint256"
        },
        {
          "name": "wineState",
          "type": "uint256"
        },
        {
          "name": "productNotes",
          "type": "string"
        },
        {
          "name": "wineMerchantID",
          "type": "address"
        },
        {
          "name": "consumerID",
          "type": "address"
        }
      ],
      "payable": false,
      "stateMutability": "view",
      "type": "function",
      "signature": "0xf45e3c5a"
    }
  ],
  "bytecode": "0x6080604052336000806101000a81548173ffffffffffffffffffffffffffffffffffffffff021916908373ffffffffffffffffffffffffffffffffffffffff1602179055506000809054906101000a900473ffffffffffffffffffffffffffffffffffffffff1673ffffffffffffffffffffffffffffffffffffffff16600073ffffffffffffffffffffffffffffffffffffffff167f8be0079c531659141344cd1fd0a4f28419497f9722a3daafe3b4186f6b6457e060405160405180910390a360008060146101000a81548160ff021916908315150217905550620000f43362000136640100000000026401000000009004565b6200010e33620001a0640100000000026401000000009004565b62000128336200020a640100000000026401000000009004565b6001600481905550620003cc565b6200015a8160016200027464010000000002620040ec179091906401000000009004565b8073ffffffffffffffffffffffffffffffffffffffff167f28b26e7a3d20aedbc5f8f2ebf7da671c0491723a2b78f47a097b0e46dee0714260405160405180910390a250565b620001c48160026200027464010000000002620040ec179091906401000000009004565b8073ffffffffffffffffffffffffffffffffffffffff167f6aff2d1ad0280d73c0aeb6b7f6a5efcfde859651f09233c1356f94d0116ea66260405160405180910390a250565b6200022e8160036200027464010000000002620040ec179091906401000000009004565b8073ffffffffffffffffffffffffffffffffffffffff167f6bc466ddf8bd40475fdbc6f9b2de8c103d9c1cebcdf26fba81a42b5f5ce88f1e60405160405180910390a250565b600073ffffffffffffffffffffffffffffffffffffffff168173ffffffffffffffffffffffffffffffffffffffff1614151515620002b157600080fd5b620002cc828262000337640100000000026401000000009004565b151515620002d957600080fd5b60018260000160008373ffffffffffffffffffffffffffffffffffffffff1673ffffffffffffffffffffffffffffffffffffffff16815260200190815260200160002060006101000a81548160ff0219169083151502179055505050565b60008073ffffffffffffffffffffffffffffffffffffffff168273ffffffffffffffffffffffffffffffffffffffff16141515156200037557600080fd5b8260000160008373ffffffffffffffffffffffffffffffffffffffff1673ffffffffffffffffffffffffffffffffffffffff16815260200190815260200160002060009054906101000a900460ff16905092915050565b61431c80620003dc6000396000f3fe60806040526004361061017f576000357c0100000000000000000000000000000000000000000000000000000000900463ffffffff16806264a0a31461018457806304fee1eb146101d5578063112940f9146102035780631987884d1461025457806326820e7e146102995780633f4ba83a146102d457806341c0e1b5146102eb5780635a5af9e3146103025780635c975abb1461033d57806361e6982d1461036c578063715018a61461038357806376410cb51461039a5780637b97bb34146103b157806382b489f8146103ec578063834ff739146104035780638456cb591461046c5780638b02c226146104835780638da5cb5b146104c85780638f32d59b1461051f578063933e3ea31461054e5780639c190f3e14610589578063a7a2d35e146105ce578063b38e69e514610637578063bccefb34146106a0578063cbcf2349146109ce578063d1e74044146109fc578063e196768e14610a37578063ea993b2814610a88578063f2fde38b14610cf4578063f45e3c5a14610d45575b600080fd5b34801561019057600080fd5b506101d3600480360360208110156101a757600080fd5b81019080803573ffffffffffffffffffffffffffffffffffffffff169060200190929190505050610e90565b005b610201600480360360208110156101eb57600080fd5b8101908080359060200190929190505050610f65565b005b34801561020f57600080fd5b506102526004803603602081101561022657600080fd5b81019080803573ffffffffffffffffffffffffffffffffffffffff1690602001909291905050506114da565b005b34801561026057600080fd5b506102976004803603604081101561027757600080fd5b8101908080359060200190929190803590602001909291905050506115af565b005b3480156102a557600080fd5b506102d2600480360360208110156102bc57600080fd5b8101908080359060200190929190505050611817565b005b3480156102e057600080fd5b506102e9611a63565b005b3480156102f757600080fd5b50610300611bc5565b005b34801561030e57600080fd5b5061033b6004803603602081101561032557600080fd5b8101908080359060200190929190505050611bf8565b005b34801561034957600080fd5b50610352611e44565b604051808215151515815260200191505060405180910390f35b34801561037857600080fd5b50610381611e5a565b005b34801561038f57600080fd5b50610398611e65565b005b3480156103a657600080fd5b506103af611f37565b005b3480156103bd57600080fd5b506103ea600480360360208110156103d457600080fd5b8101908080359060200190929190505050611f42565b005b3480156103f857600080fd5b5061040161218e565b005b34801561040f57600080fd5b506104526004803603602081101561042657600080fd5b81019080803573ffffffffffffffffffffffffffffffffffffffff169060200190929190505050612199565b604051808215151515815260200191505060405180910390f35b34801561047857600080fd5b506104816121b6565b005b34801561048f57600080fd5b506104c6600480360360408110156104a657600080fd5b81019080803590602001909291908035906020019092919050505061231a565b005b3480156104d457600080fd5b506104dd612582565b604051808273ffffffffffffffffffffffffffffffffffffffff1673ffffffffffffffffffffffffffffffffffffffff16815260200191505060405180910390f35b34801561052b57600080fd5b506105346125ab565b604051808215151515815260200191505060405180910390f35b34801561055a57600080fd5b506105876004803603602081101561057157600080fd5b8101908080359060200190929190505050612602565b005b34801561059557600080fd5b506105cc600480360360408110156105ac57600080fd5b81019080803590602001909291908035906020019092919050505061284e565b005b3480156105da57600080fd5b5061061d600480360360208110156105f157600080fd5b81019080803573ffffffffffffffffffffffffffffffffffffffff169060200190929190505050612ab6565b604051808215151515815260200191505060405180910390f35b34801561064357600080fd5b506106866004803603602081101561065a57600080fd5b81019080803573ffffffffffffffffffffffffffffffffffffffff169060200190929190505050612ad3565b604051808215151515815260200191505060405180910390f35b3480156106ac57600080fd5b506109cc600480360360c08110156106c357600080fd5b8101908080359060200190929190803590602001906401000000008111156106ea57600080fd5b8201836020820111156106fc57600080fd5b8035906020019184600183028401116401000000008311171561071e57600080fd5b91908080601f016020809104026020016040519081016040528093929190818152602001838380828437600081840152601f19601f8201169050808301925050505050505091929192908035906020019064010000000081111561078157600080fd5b82018360208201111561079357600080fd5b803590602001918460018302840111640100000000831117156107b557600080fd5b91908080601f016020809104026020016040519081016040528093929190818152602001838380828437600081840152601f19601f8201169050808301925050505050505091929192908035906020019064010000000081111561081857600080fd5b82018360208201111561082a57600080fd5b8035906020019184600183028401116401000000008311171561084c57600080fd5b91908080601f016020809104026020016040519081016040528093929190818152602001838380828437600081840152601f19601f820116905080830192505050505050509192919290803590602001906401000000008111156108af57600080fd5b8201836020820111156108c157600080fd5b803590602001918460018302840111640100000000831117156108e357600080fd5b91908080601f016020809104026020016040519081016040528093929190818152602001838380828437600081840152601f19601f8201169050808301925050505050505091929192908035906020019064010000000081111561094657600080fd5b82018360208201111561095857600080fd5b8035906020019184600183028401116401000000008311171561097a57600080fd5b91908080601f016020809104026020016040519081016040528093929190818152602001838380828437600081840152601f19601f820116905080830192505050505050509192919290505050612af0565b005b6109fa600480360360208110156109e457600080fd5b8101908080359060200190929190505050612fff565b005b348015610a0857600080fd5b50610a3560048036036020811015610a1f57600080fd5b810190808035906020019092919050505061354d565b005b348015610a4357600080fd5b50610a8660048036036020811015610a5a57600080fd5b81019080803573ffffffffffffffffffffffffffffffffffffffff169060200190929190505050613799565b005b348015610a9457600080fd5b50610ac160048036036020811015610aab57600080fd5b810190808035906020019092919050505061386e565b604051808981526020018881526020018773ffffffffffffffffffffffffffffffffffffffff1673ffffffffffffffffffffffffffffffffffffffff1681526020018673ffffffffffffffffffffffffffffffffffffffff1673ffffffffffffffffffffffffffffffffffffffff16815260200180602001806020018060200180602001858103855289818151815260200191508051906020019080838360005b83811015610b7d578082015181840152602081019050610b62565b50505050905090810190601f168015610baa5780820380516001836020036101000a031916815260200191505b50858103845288818151815260200191508051906020019080838360005b83811015610be3578082015181840152602081019050610bc8565b50505050905090810190601f168015610c105780820380516001836020036101000a031916815260200191505b50858103835287818151815260200191508051906020019080838360005b83811015610c49578082015181840152602081019050610c2e565b50505050905090810190601f168015610c765780820380516001836020036101000a031916815260200191505b50858103825286818151815260200191508051906020019080838360005b83811015610caf578082015181840152602081019050610c94565b50505050905090810190601f168015610cdc5780820380516001836020036101000a031916815260200191505b509c5050505050505050505050505060405180910390f35b348015610d0057600080fd5b50610d4360048036036020811015610d1757600080fd5b81019080803573ffffffffffffffffffffffffffffffffffffffff169060200190929190505050613b75565b005b348015610d5157600080fd5b50610d7e60048036036020811015610d6857600080fd5b8101908080359060200190929190505050613b94565b604051808b81526020018a8152602001898152602001888152602001878152602001868152602001858152602001806020018473ffffffffffffffffffffffffffffffffffffffff1673ffffffffffffffffffffffffffffffffffffffff1681526020018373ffffffffffffffffffffffffffffffffffffffff1673ffffffffffffffffffffffffffffffffffffffff168152602001828103825285818151815260200191508051906020019080838360005b83811015610e4c578082015181840152602081019050610e31565b50505050905090810190601f168015610e795780820380516001836020036101000a031916815260200191505b509b50505050505050505050505060405180910390f35b610e9933612ab6565b1515610f59576040517f08c379a000000000000000000000000000000000000000000000000000000000815260040180806020018281038252604c8152602001807f57696e656d616b6572526f6c653a3a6f6e6c7957696e656d616b6572202d205981526020017f6f75206e656564207468652077696e656d616b657220726f6c6520746f20646f81526020017f207468697320616374696f6e000000000000000000000000000000000000000081525060600191505060405180910390fd5b610f6281613cff565b50565b806008600a811115610f7357fe5b60056000838152602001908152602001600020600d0160009054906101000a900460ff16600a811115610fa257fe5b141515611063576040517f08c379a00000000000000000000000000000000000000000000000000000000081526004018080602001828103825260428152602001807f537570706c79436861696e3a3a666f725075726368617365202d20746869732081526020017f77696e6520686173206e6f742074686520466f7250757263686173652073746181526020017f746500000000000000000000000000000000000000000000000000000000000081525060600191505060405180910390fd5b60056000838152602001908152602001600020600c0154803410151515611118576040517f08c379a00000000000000000000000000000000000000000000000000000000081526004018080602001828103825260298152602001807f537570706c79436861696e3a3a70616964456e6f756768202d204e6f7420656e81526020017f6f7567682066756e64000000000000000000000000000000000000000000000081525060400191505060405180910390fd5b60056000848152602001908152602001600020600c015461113833612199565b15156111f8576040517f08c379a000000000000000000000000000000000000000000000000000000000815260040180806020018281038252604f8152602001807f436f6e73756d6572526f6c653a3a6f6e6c79436f6e73756d6572202d20596f7581526020017f206e65656420746f20686176652074686520636f6e73756d657220726f6c652081526020017f746f20706572666f726d2074686973000000000000000000000000000000000081525060600191505060405180910390fd5b600060149054906101000a900460ff161515156112c9576040517f08c379a000000000000000000000000000000000000000000000000000000000815260040180806020018281038252605d8152602001807f5061757361626c653a3a7768656e4e6f74506175736564202d2054686520636f81526020017f6e7472616374206973207061757365642c20696d706f737369626c6520746f2081526020017f706572666f726d207468697320616374696f6e207269676874206e6f7700000081525060600191505060405180910390fd5b600960056000868152602001908152602001600020600d0160006101000a81548160ff0219169083600a8111156112fc57fe5b02179055503360056000868152602001908152602001600020600e0160006101000a81548173ffffffffffffffffffffffffffffffffffffffff021916908373ffffffffffffffffffffffffffffffffffffffff160217905550336005600086815260200190815260200160002060030160006101000a81548173ffffffffffffffffffffffffffffffffffffffff021916908373ffffffffffffffffffffffffffffffffffffffff16021790555060056000858152602001908152602001600020600d0160019054906101000a900473ffffffffffffffffffffffffffffffffffffffff1673ffffffffffffffffffffffffffffffffffffffff166108fc60056000878152602001908152602001600020600c01549081150290604051600060405180830381858888f1935050505015801561143d573d6000803e3d6000fd5b507f653d56639fee6b566a5c804764e9689de38645f0b733df89a36a1b7b42173dd8846040518082815260200191505060405180910390a1600061148a8234613d5990919063ffffffff16565b90503373ffffffffffffffffffffffffffffffffffffffff166108fc829081150290604051600060405180830381858888f193505050501580156114d2573d6000803e3d6000fd5b505050505050565b6114e333612199565b15156115a3576040517f08c379a000000000000000000000000000000000000000000000000000000000815260040180806020018281038252604f8152602001807f436f6e73756d6572526f6c653a3a6f6e6c79436f6e73756d6572202d20596f7581526020017f206e65656420746f20686176652074686520636f6e73756d657220726f6c652081526020017f746f20706572666f726d2074686973000000000000000000000000000000000081525060600191505060405180910390fd5b6115ac81613d7b565b50565b816003600a8111156115bd57fe5b60056000838152602001908152602001600020600d0160009054906101000a900460ff16600a8111156115ec57fe5b141515611687576040517f08c379a00000000000000000000000000000000000000000000000000000000081526004018080602001828103825260388152602001807f537570706c79436861696e3a3a7061636b6564202d20746869732077696e652081526020017f686173206e6f7420746865205061636b6564207374617465000000000000000081525060400191505060405180910390fd5b6005600084815260200190815260200160002060040160009054906101000a900473ffffffffffffffffffffffffffffffffffffffff168073ffffffffffffffffffffffffffffffffffffffff163373ffffffffffffffffffffffffffffffffffffffff16141515611787576040517f08c379a000000000000000000000000000000000000000000000000000000000815260040180806020018281038252603e8152602001807f537570706c79436861696e3a3a76657269667943616c6c6572202d205468652081526020017f63616c6c6572206973206e6f7420746865206f6e6520737570706f736564000081525060400191505060405180910390fd5b600460056000868152602001908152602001600020600d0160006101000a81548160ff0219169083600a8111156117ba57fe5b02179055508260056000868152602001908152602001600020600b01819055507fa96ae0fc3224ebd79eebfe54bd130cc9cb94416cddd1f2386115e00b72532468846040518082815260200191505060405180910390a150505050565b806005600a81111561182557fe5b60056000838152602001908152602001600020600d0160009054906101000a900460ff16600a81111561185457fe5b1415156118ef576040517f08c379a00000000000000000000000000000000000000000000000000000000081526004018080602001828103825260348152602001807f537570706c79436861696e3a3a736f6c64202d20746869732077696e6520686181526020017f73206e6f742074686520536f6c6420737461746500000000000000000000000081525060400191505060405180910390fd5b6005600083815260200190815260200160002060040160009054906101000a900473ffffffffffffffffffffffffffffffffffffffff168073ffffffffffffffffffffffffffffffffffffffff163373ffffffffffffffffffffffffffffffffffffffff161415156119ef576040517f08c379a000000000000000000000000000000000000000000000000000000000815260040180806020018281038252603e8152602001807f537570706c79436861696e3a3a76657269667943616c6c6572202d205468652081526020017f63616c6c6572206973206e6f7420746865206f6e6520737570706f736564000081525060400191505060405180910390fd5b600660056000858152602001908152602001600020600d0160006101000a81548160ff0219169083600a811115611a2257fe5b02179055507ff00b9a5725b80c54016f42114f6ed7792d22eecb116011c4afac29c57bef6c95836040518082815260200191505060405180910390a1505050565b611a6b6125ab565b1515611a7657600080fd5b600060149054906101000a900460ff161515611b46576040517f08c379a00000000000000000000000000000000000000000000000000000000081526004018080602001828103825260488152602001807f5061757361626c653a3a7768656e506175736564202d20416374696f6e20617681526020017f61696c61626c65206f6e6c79207768656e2074686520636f6e7472616374206981526020017f732070617573656400000000000000000000000000000000000000000000000081525060600191505060405180910390fd5b60008060146101000a81548160ff0219169083151502179055507f5db9ee0a495bf2e6ff9c91a7834c1ba4fdd244a5e8aa4e537bd38aeae4b073aa33604051808273ffffffffffffffffffffffffffffffffffffffff1673ffffffffffffffffffffffffffffffffffffffff16815260200191505060405180910390a1565b611bcd6125ab565b1515611bd857600080fd5b611be0612582565b73ffffffffffffffffffffffffffffffffffffffff16ff5b806009600a811115611c0657fe5b60056000838152602001908152602001600020600d0160009054906101000a900460ff16600a811115611c3557fe5b141515611cd0576040517f08c379a000000000000000000000000000000000000000000000000000000000815260040180806020018281038252603e8152602001807f537570706c79436861696e3a3a707572636861736564202d207468697320776981526020017f6e6520686173206e6f742074686520507572636861736564207374617465000081525060400191505060405180910390fd5b60056000838152602001908152602001600020600e0160009054906101000a900473ffffffffffffffffffffffffffffffffffffffff168073ffffffffffffffffffffffffffffffffffffffff163373ffffffffffffffffffffffffffffffffffffffff16141515611dd0576040517f08c379a000000000000000000000000000000000000000000000000000000000815260040180806020018281038252603e8152602001807f537570706c79436861696e3a3a76657269667943616c6c6572202d205468652081526020017f63616c6c6572206973206e6f7420746865206f6e6520737570706f736564000081525060400191505060405180910390fd5b600a60056000858152602001908152602001600020600d0160006101000a81548160ff0219169083600a811115611e0357fe5b02179055507fbf38bfcdeeeb6820d8c2698405c403848b5c3fc0bc7dba5988466b55f424f51b836040518082815260200191505060405180910390a1505050565b60008060149054906101000a900460ff16905090565b611e6333613dd5565b565b611e6d6125ab565b1515611e7857600080fd5b600073ffffffffffffffffffffffffffffffffffffffff166000809054906101000a900473ffffffffffffffffffffffffffffffffffffffff1673ffffffffffffffffffffffffffffffffffffffff167f8be0079c531659141344cd1fd0a4f28419497f9722a3daafe3b4186f6b6457e060405160405180910390a360008060006101000a81548173ffffffffffffffffffffffffffffffffffffffff021916908373ffffffffffffffffffffffffffffffffffffffff160217905550565b611f4033613e2f565b565b806002600a811115611f5057fe5b60056000838152602001908152602001600020600d0160009054906101000a900460ff16600a811115611f7f57fe5b14151561201a576040517f08c379a000000000000000000000000000000000000000000000000000000000815260040180806020018281038252603a8152602001807f537570706c79436861696e3a3a626f74746c6564202d20746869732077696e6581526020017f20686173206e6f742074686520426f74746c656420737461746500000000000081525060400191505060405180910390fd5b6005600083815260200190815260200160002060040160009054906101000a900473ffffffffffffffffffffffffffffffffffffffff168073ffffffffffffffffffffffffffffffffffffffff163373ffffffffffffffffffffffffffffffffffffffff1614151561211a576040517f08c379a000000000000000000000000000000000000000000000000000000000815260040180806020018281038252603e8152602001807f537570706c79436861696e3a3a76657269667943616c6c6572202d205468652081526020017f63616c6c6572206973206e6f7420746865206f6e6520737570706f736564000081525060400191505060405180910390fd5b600360056000858152602001908152602001600020600d0160006101000a81548160ff0219169083600a81111561214d57fe5b02179055507f9b3b66e2380b690bae22c73ef1428fb0c91e72fe14a4b6defa13035214187aff836040518082815260200191505060405180910390a1505050565b61219733613e89565b565b60006121af826001613ee390919063ffffffff16565b9050919050565b6121be6125ab565b15156121c957600080fd5b600060149054906101000a900460ff1615151561229a576040517f08c379a000000000000000000000000000000000000000000000000000000000815260040180806020018281038252605d8152602001807f5061757361626c653a3a7768656e4e6f74506175736564202d2054686520636f81526020017f6e7472616374206973207061757365642c20696d706f737369626c6520746f2081526020017f706572666f726d207468697320616374696f6e207269676874206e6f7700000081525060600191505060405180910390fd5b6001600060146101000a81548160ff0219169083151502179055507f62e78cea01bee320cd4e420270b5ea74000d11b0c9f74754ebdbfc544b05a25833604051808273ffffffffffffffffffffffffffffffffffffffff1673ffffffffffffffffffffffffffffffffffffffff16815260200191505060405180910390a1565b816007600a81111561232857fe5b60056000838152602001908152602001600020600d0160009054906101000a900460ff16600a81111561235757fe5b1415156123f2576040517f08c379a000000000000000000000000000000000000000000000000000000000815260040180806020018281038252603c8152602001807f537570706c79436861696e3a3a7265636569766564202d20746869732077696e81526020017f6520686173206e6f74207468652052656365697665642073746174650000000081525060400191505060405180910390fd5b60056000848152602001908152602001600020600d0160019054906101000a900473ffffffffffffffffffffffffffffffffffffffff168073ffffffffffffffffffffffffffffffffffffffff163373ffffffffffffffffffffffffffffffffffffffff161415156124f2576040517f08c379a000000000000000000000000000000000000000000000000000000000815260040180806020018281038252603e8152602001807f537570706c79436861696e3a3a76657269667943616c6c6572202d205468652081526020017f63616c6c6572206973206e6f7420746865206f6e6520737570706f736564000081525060400191505060405180910390fd5b600860056000868152602001908152602001600020600d0160006101000a81548160ff0219169083600a81111561252557fe5b02179055508260056000868152602001908152602001600020600c01819055507f70c8907adbc70c123be129c28b7b5fa349be808d31b8acff2969a68651b1a613846040518082815260200191505060405180910390a150505050565b60008060009054906101000a900473ffffffffffffffffffffffffffffffffffffffff16905090565b60008060009054906101000a900473ffffffffffffffffffffffffffffffffffffffff1673ffffffffffffffffffffffffffffffffffffffff163373ffffffffffffffffffffffffffffffffffffffff1614905090565b806001600a81111561261057fe5b60056000838152602001908152602001600020600d0160009054906101000a900460ff16600a81111561263f57fe5b1415156126da576040517f08c379a00000000000000000000000000000000000000000000000000000000081526004018080602001828103825260348152602001807f537570706c79436861696e3a3a61676564202d20746869732077696e6520686181526020017f73206e6f7420746865204167656420737461746500000000000000000000000081525060400191505060405180910390fd5b6005600083815260200190815260200160002060040160009054906101000a900473ffffffffffffffffffffffffffffffffffffffff168073ffffffffffffffffffffffffffffffffffffffff163373ffffffffffffffffffffffffffffffffffffffff161415156127da576040517f08c379a000000000000000000000000000000000000000000000000000000000815260040180806020018281038252603e8152602001807f537570706c79436861696e3a3a76657269667943616c6c6572202d205468652081526020017f63616c6c6572206973206e6f7420746865206f6e6520737570706f736564000081525060400191505060405180910390fd5b600260056000858152602001908152602001600020600d0160006101000a81548160ff0219169083600a81111561280d57fe5b02179055507f8aff1823bf9f30e2f7eacb17de47cc2917592a34188a0b47c0c228c82c38fc54836040518082815260200191505060405180910390a1505050565b816000600a81111561285c57fe5b60056000838152602001908152602001600020600d0160009054906101000a900460ff16600a81111561288b57fe5b141515612926576040517f08c379a00000000000000000000000000000000000000000000000000000000081526004018080602001828103825260348152602001807f537570706c79436861696e3a3a6d616465202d20746869732077696e6520686181526020017f73206e6f7420746865204d61646520737461746500000000000000000000000081525060400191505060405180910390fd5b6005600084815260200190815260200160002060040160009054906101000a900473ffffffffffffffffffffffffffffffffffffffff168073ffffffffffffffffffffffffffffffffffffffff163373ffffffffffffffffffffffffffffffffffffffff16141515612a26576040517f08c379a000000000000000000000000000000000000000000000000000000000815260040180806020018281038252603e8152602001807f537570706c79436861696e3a3a76657269667943616c6c6572202d205468652081526020017f63616c6c6572206973206e6f7420746865206f6e6520737570706f736564000081525060400191505060405180910390fd5b826005600086815260200190815260200160002060020181905550600160056000868152602001908152602001600020600d0160006101000a81548160ff0219169083600a811115612a7457fe5b02179055507ffa795f995e12c074777bab440425afc98477f6cfceceba5ca50feae5089e59ce846040518082815260200191505060405180910390a150505050565b6000612acc826002613ee390919063ffffffff16565b9050919050565b6000612ae9826003613ee390919063ffffffff16565b9050919050565b612af933612ab6565b1515612bb9576040517f08c379a000000000000000000000000000000000000000000000000000000000815260040180806020018281038252604c8152602001807f57696e656d616b6572526f6c653a3a6f6e6c7957696e656d616b6572202d205981526020017f6f75206e656564207468652077696e656d616b657220726f6c6520746f20646f81526020017f207468697320616374696f6e000000000000000000000000000000000000000081525060600191505060405180910390fd5b600060149054906101000a900460ff16151515612c8a576040517f08c379a000000000000000000000000000000000000000000000000000000000815260040180806020018281038252605d8152602001807f5061757361626c653a3a7768656e4e6f74506175736564202d2054686520636f81526020017f6e7472616374206973207061757365642c20696d706f737369626c6520746f2081526020017f706572666f726d207468697320616374696f6e207269676874206e6f7700000081525060600191505060405180910390fd5b610200604051908101604052806004548152602001878152602001600081526020013373ffffffffffffffffffffffffffffffffffffffff1681526020013373ffffffffffffffffffffffffffffffffffffffff168152602001868152602001858152602001848152602001838152602001612d1188600454613f7790919063ffffffff16565b815260200182815260200160008152602001600081526020016000600a811115612d3757fe5b8152602001600073ffffffffffffffffffffffffffffffffffffffff168152602001600073ffffffffffffffffffffffffffffffffffffffff168152506005600088815260200190815260200160002060008201518160000155602082015181600101556040820151816002015560608201518160030160006101000a81548173ffffffffffffffffffffffffffffffffffffffff021916908373ffffffffffffffffffffffffffffffffffffffff16021790555060808201518160040160006101000a81548173ffffffffffffffffffffffffffffffffffffffff021916908373ffffffffffffffffffffffffffffffffffffffff16021790555060a0820151816005019080519060200190612e4f92919061424b565b5060c0820151816006019080519060200190612e6c92919061424b565b5060e0820151816007019080519060200190612e8992919061424b565b50610100820151816008019080519060200190612ea792919061424b565b50610120820151816009015561014082015181600a019080519060200190612ed092919061424b565b5061016082015181600b015561018082015181600c01556101a082015181600d0160006101000a81548160ff0219169083600a811115612f0c57fe5b02179055506101c082015181600d0160016101000a81548173ffffffffffffffffffffffffffffffffffffffff021916908373ffffffffffffffffffffffffffffffffffffffff1602179055506101e082015181600e0160006101000a81548173ffffffffffffffffffffffffffffffffffffffff021916908373ffffffffffffffffffffffffffffffffffffffff160217905550905050612fba6001600454613f7790919063ffffffff16565b6004819055507feb8109592a383473c76afa62041a6dbabac0ca80d859bbdffb13c5a70c454b90866040518082815260200191505060405180910390a1505050505050565b806004600a81111561300d57fe5b60056000838152602001908152602001600020600d0160009054906101000a900460ff16600a81111561303c57fe5b1415156130d7576040517f08c379a000000000000000000000000000000000000000000000000000000000815260040180806020018281038252603a8152602001807f537570706c79436861696e3a3a666f7253616c65202d20746869732077696e6581526020017f20686173206e6f742074686520466f7253616c6520737461746500000000000081525060400191505060405180910390fd5b60056000838152602001908152602001600020600b015480341015151561318c576040517f08c379a00000000000000000000000000000000000000000000000000000000081526004018080602001828103825260298152602001807f537570706c79436861696e3a3a70616964456e6f756768202d204e6f7420656e81526020017f6f7567682066756e64000000000000000000000000000000000000000000000081525060400191505060405180910390fd5b60056000848152602001908152602001600020600b01546131ac33612ad3565b151561326c576040517f08c379a00000000000000000000000000000000000000000000000000000000081526004018080602001828103825260518152602001807f57696e654d65726368616e74526f6c653a3a6f6e6c7957696e654d657263686181526020017f6e74202d206f6e6c7920612077696e65206d65726368616e742063616e20706581526020017f72666f726d207468697320616374696f6e00000000000000000000000000000081525060600191505060405180910390fd5b600060149054906101000a900460ff1615151561333d576040517f08c379a000000000000000000000000000000000000000000000000000000000815260040180806020018281038252605d8152602001807f5061757361626c653a3a7768656e4e6f74506175736564202d2054686520636f81526020017f6e7472616374206973207061757365642c20696d706f737369626c6520746f2081526020017f706572666f726d207468697320616374696f6e207269676874206e6f7700000081525060600191505060405180910390fd5b6005806000868152602001908152602001600020600d0160006101000a81548160ff0219169083600a81111561336f57fe5b02179055503360056000868152602001908152602001600020600d0160016101000a81548173ffffffffffffffffffffffffffffffffffffffff021916908373ffffffffffffffffffffffffffffffffffffffff160217905550336005600086815260200190815260200160002060030160006101000a81548173ffffffffffffffffffffffffffffffffffffffff021916908373ffffffffffffffffffffffffffffffffffffffff1602179055506005600085815260200190815260200160002060040160009054906101000a900473ffffffffffffffffffffffffffffffffffffffff1673ffffffffffffffffffffffffffffffffffffffff166108fc60056000878152602001908152602001600020600b01549081150290604051600060405180830381858888f193505050501580156134b0573d6000803e3d6000fd5b507f92f64ca637d023f354075a4be751b169c1a8a9ccb6d33cdd0cb3520543995727846040518082815260200191505060405180910390a160006134fd8234613d5990919063ffffffff16565b90503373ffffffffffffffffffffffffffffffffffffffff166108fc829081150290604051600060405180830381858888f19350505050158015613545573d6000803e3d6000fd5b505050505050565b806006600a81111561355b57fe5b60056000838152602001908152602001600020600d0160009054906101000a900460ff16600a81111561358a57fe5b141515613625576040517f08c379a000000000000000000000000000000000000000000000000000000000815260040180806020018281038252603a8152602001807f537570706c79436861696e3a3a73686970706564202d20746869732077696e6581526020017f20686173206e6f7420746865205368697070656420737461746500000000000081525060400191505060405180910390fd5b60056000838152602001908152602001600020600d0160019054906101000a900473ffffffffffffffffffffffffffffffffffffffff168073ffffffffffffffffffffffffffffffffffffffff163373ffffffffffffffffffffffffffffffffffffffff16141515613725576040517f08c379a000000000000000000000000000000000000000000000000000000000815260040180806020018281038252603e8152602001807f537570706c79436861696e3a3a76657269667943616c6c6572202d205468652081526020017f63616c6c6572206973206e6f7420746865206f6e6520737570706f736564000081525060400191505060405180910390fd5b600760056000858152602001908152602001600020600d0160006101000a81548160ff0219169083600a81111561375857fe5b02179055507fa8142743f8f70a4c26f3691cf4ed59718381fb2f18070ec52be1f1022d855557836040518082815260200191505060405180910390a1505050565b6137a233612ad3565b1515613862576040517f08c379a00000000000000000000000000000000000000000000000000000000081526004018080602001828103825260518152602001807f57696e654d65726368616e74526f6c653a3a6f6e6c7957696e654d657263686181526020017f6e74202d206f6e6c7920612077696e65206d65726368616e742063616e20706581526020017f72666f726d207468697320616374696f6e00000000000000000000000000000081525060600191505060405180910390fd5b61386b81613f98565b50565b6000806000806060806060806000600560008b8152602001908152602001600020905080600001549850806001015497508060030160009054906101000a900473ffffffffffffffffffffffffffffffffffffffff1696508060040160009054906101000a900473ffffffffffffffffffffffffffffffffffffffff169550806005018054600181600116156101000203166002900480601f0160208091040260200160405190810160405280929190818152602001828054600181600116156101000203166002900480156139855780601f1061395a57610100808354040283529160200191613985565b820191906000526020600020905b81548152906001019060200180831161396857829003601f168201915b50505050509450806006018054600181600116156101000203166002900480601f016020809104026020016040519081016040528092919081815260200182805460018160011615610100020316600290048015613a245780601f106139f957610100808354040283529160200191613a24565b820191906000526020600020905b815481529060010190602001808311613a0757829003601f168201915b50505050509350806007018054600181600116156101000203166002900480601f016020809104026020016040519081016040528092919081815260200182805460018160011615610100020316600290048015613ac35780601f10613a9857610100808354040283529160200191613ac3565b820191906000526020600020905b815481529060010190602001808311613aa657829003601f168201915b50505050509250806008018054600181600116156101000203166002900480601f016020809104026020016040519081016040528092919081815260200182805460018160011615610100020316600290048015613b625780601f10613b3757610100808354040283529160200191613b62565b820191906000526020600020905b815481529060010190602001808311613b4557829003601f168201915b5050505050915050919395975091939597565b613b7d6125ab565b1515613b8857600080fd5b613b9181613ff2565b50565b600080600080600080600060606000806000600560008d8152602001908152602001600020905080600001549a50806001015499508060090154985080600a018054600181600116156101000203166002900480601f016020809104026020016040519081016040528092919081815260200182805460018160011615610100020316600290048015613c685780601f10613c3d57610100808354040283529160200191613c68565b820191906000526020600020905b815481529060010190602001808311613c4b57829003601f168201915b5050505050935080600b0154975080600c015496508060020154955080600d0160009054906101000a900460ff16600a811115613ca157fe5b945080600d0160019054906101000a900473ffffffffffffffffffffffffffffffffffffffff16925080600e0160009054906101000a900473ffffffffffffffffffffffffffffffffffffffff169150509193959799509193959799565b613d138160026140ec90919063ffffffff16565b8073ffffffffffffffffffffffffffffffffffffffff167f6aff2d1ad0280d73c0aeb6b7f6a5efcfde859651f09233c1356f94d0116ea66260405160405180910390a250565b6000828211151515613d6a57600080fd5b600082840390508091505092915050565b613d8f8160016140ec90919063ffffffff16565b8073ffffffffffffffffffffffffffffffffffffffff167f28b26e7a3d20aedbc5f8f2ebf7da671c0491723a2b78f47a097b0e46dee0714260405160405180910390a250565b613de981600161419c90919063ffffffff16565b8073ffffffffffffffffffffffffffffffffffffffff167fe3f5ed5f263f1f01764a96edfc7d025f511ec5f7d180e8816908b78bcf74f09860405160405180910390a250565b613e4381600261419c90919063ffffffff16565b8073ffffffffffffffffffffffffffffffffffffffff167fc4aab0426e55302866fc0731265c0e1822c38784d55adc66130827772c58186260405160405180910390a250565b613e9d81600361419c90919063ffffffff16565b8073ffffffffffffffffffffffffffffffffffffffff167fefc5acff2602ca17d8040a490446dd5efbaea2995454305bd2f0af1a10bf693760405160405180910390a250565b60008073ffffffffffffffffffffffffffffffffffffffff168273ffffffffffffffffffffffffffffffffffffffff1614151515613f2057600080fd5b8260000160008373ffffffffffffffffffffffffffffffffffffffff1673ffffffffffffffffffffffffffffffffffffffff16815260200190815260200160002060009054906101000a900460ff16905092915050565b6000808284019050838110151515613f8e57600080fd5b8091505092915050565b613fac8160036140ec90919063ffffffff16565b8073ffffffffffffffffffffffffffffffffffffffff167f6bc466ddf8bd40475fdbc6f9b2de8c103d9c1cebcdf26fba81a42b5f5ce88f1e60405160405180910390a250565b600073ffffffffffffffffffffffffffffffffffffffff168173ffffffffffffffffffffffffffffffffffffffff161415151561402e57600080fd5b8073ffffffffffffffffffffffffffffffffffffffff166000809054906101000a900473ffffffffffffffffffffffffffffffffffffffff1673ffffffffffffffffffffffffffffffffffffffff167f8be0079c531659141344cd1fd0a4f28419497f9722a3daafe3b4186f6b6457e060405160405180910390a3806000806101000a81548173ffffffffffffffffffffffffffffffffffffffff021916908373ffffffffffffffffffffffffffffffffffffffff16021790555050565b600073ffffffffffffffffffffffffffffffffffffffff168173ffffffffffffffffffffffffffffffffffffffff161415151561412857600080fd5b6141328282613ee3565b15151561413e57600080fd5b60018260000160008373ffffffffffffffffffffffffffffffffffffffff1673ffffffffffffffffffffffffffffffffffffffff16815260200190815260200160002060006101000a81548160ff0219169083151502179055505050565b600073ffffffffffffffffffffffffffffffffffffffff168173ffffffffffffffffffffffffffffffffffffffff16141515156141d857600080fd5b6141e28282613ee3565b15156141ed57600080fd5b60008260000160008373ffffffffffffffffffffffffffffffffffffffff1673ffffffffffffffffffffffffffffffffffffffff16815260200190815260200160002060006101000a81548160ff0219169083151502179055505050565b828054600181600116156101000203166002900490600052602060002090601f016020900481019282601f1061428c57805160ff19168380011785556142ba565b828001600101855582156142ba579182015b828111156142b957825182559160200191906001019061429e565b5b5090506142c791906142cb565b5090565b6142ed91905b808211156142e95760008160009055506001016142d1565b5090565b9056fea165627a7a7230582045e99c5f80b1f222840d69552990a1658fcfd71a2fe20226492132d1d3baee800029",
  "source": "pragma solidity ^0.5.0;\n\nimport \"../wineaccesscontrol/ConsumerRole.sol\";\nimport \"../wineaccesscontrol/WinemakerRole.sol\";\nimport \"../wineaccesscontrol/WineMerchantRole.sol\";\nimport \"../winecore/Pausable.sol\";\nimport \"../utils/SafeMath.sol\";\n\n// Define a contract 'Supplychain'\ncontract SupplyChain is Pausable, ConsumerRole, WinemakerRole, WineMerchantRole {\n  using SafeMath for uint256;\n\n  // Define a variable called 'sku' for Stock Keeping Unit (SKU)\n  uint  sku;\n\n  // Define a public mapping 'wines' that maps the UPC to an Wine.\n  mapping (uint => Wine) wines;\n\n  // Define a public mapping 'winesHistory' that maps the UPC to an array of TxHash, \n  // that track its journey through the supply chain -- to be sent from DApp.\n  mapping (uint => string[]) winesHistory;\n  \n  // Define enum 'State' with the following values:\n  enum State \n  { \n    Made,   // 0\n    Aged,   // 1\n    Bottled,  // 2\n    Packed,   // 3\n    ForSale,  // 4\n    Sold,    // 5\n    Shipped,   // 6\n    Received,   // 7\n    ForPurchase, // 8\n    Purchased,  // 9\n    Drunk // 10\n  }\n\n  State constant defaultState = State.Made;\n\n  // Define a struct 'Item' with the following fields:\n  struct Wine {\n    uint    sku;  // Stock Keeping Unit (SKU)\n    uint    upc; // Universal Product Code (UPC), generated by the Farmer, goes on the package, can be verified by the Consumer\n    uint    monthsAged; // Number of months the wine has been aged\n    address ownerID;  // Metamask-Ethereum address of the current owner as the product moves through 8 stages\n    address payable originWinemakerID; // Metamask-Ethereum address of the Farmer\n    string  originWinemakerName; // Winemaker Name\n    string  originWinemakerInformation;  // Winemaker Information\n    string  originWinemakerLatitude; // Winemaker Latitude\n    string  originWinemakerLongitude;  // Winemaker Longitude\n    uint    productID;  // Product ID potentially a combination of upc + sku\n    string  productNotes; // Product Notes\n    uint    productPrice; // Product Price\n    uint    productFinalPrice; // Final price pof the product when sales by the wine merchant\n    State   wineState;  // Product State as represented in the enum above\n    address payable wineMerchantID;  // Metamask-Ethereum address of the Wine Merchant\n    address payable consumerID; // Metamask-Ethereum address of the Consumer\n  }\n\n  // Define 8 events with the same 11 state values and accept 'upc' as input argument\n  event Made(uint upc);\n  event Aged(uint upc);\n  event Bottled(uint upc);\n  event Packed(uint upc);\n  event ForSale(uint upc);\n  event Sold(uint upc);\n  event Shipped(uint upc);\n  event Received(uint upc);\n  event ForPurchase(uint upc);\n  event Purchased(uint upc);\n  event Drunk(uint upc);\n\n  // Define a modifer that verifies the Caller\n  modifier verifyCaller (address payable _address) {\n    require(msg.sender == _address, \"SupplyChain::verifyCaller - The caller is not the one supposed\"); \n    _;\n  }\n\n  // Define a modifier that checks if the paid amount is sufficient to cover the price\n  modifier paidEnough(uint _price) { \n    require(msg.value >= _price, \"SupplyChain::paidEnough - Not enough fund\"); \n    _;\n  }\n  \n  // Define a modifier that checks the price and refunds the remaining balance\n  modifier checkValue(uint price) {\n    _;\n    uint amountToReturn = msg.value.sub(price);\n    msg.sender.transfer(amountToReturn);\n  }\n\n  // Define a modifier that checks if an wine.state of a upc is Made\n  modifier made(uint _upc) {\n    require(wines[_upc].wineState == State.Made, \"SupplyChain::made - this wine has not the Made state\");\n    _;\n  }\n\n  // Define a modifier that checks if an wine.state of a upc is Aged\n  modifier aged(uint _upc) {\n    require(wines[_upc].wineState == State.Aged, \"SupplyChain::aged - this wine has not the Aged state\");\n    _;\n  }\n  \n  // Define a modifier that checks if an wine.state of a upc is Bottled\n  modifier bottled(uint _upc) {\n    require(wines[_upc].wineState == State.Bottled, \"SupplyChain::bottled - this wine has not the Bottled state\");\n    _;\n  }\n\n    // Define a modifier that checks if an wine.state of a upc is Packed\n  modifier packed(uint _upc) {\n    require(wines[_upc].wineState == State.Packed, \"SupplyChain::packed - this wine has not the Packed state\");\n    _;\n  }\n\n  // Define a modifier that checks if an wine.state of a upc is ForSale\n  modifier forSale(uint _upc) {\n    require(wines[_upc].wineState == State.ForSale, \"SupplyChain::forSale - this wine has not the ForSale state\");\n    _;\n  }\n\n  // Define a modifier that checks if an wine.state of a upc is Sold\n  modifier sold(uint _upc) {\n    require(wines[_upc].wineState == State.Sold, \"SupplyChain::sold - this wine has not the Sold state\");\n    _;\n  }\n  \n  // Define a modifier that checks if an wine.state of a upc is Shipped\n  modifier shipped(uint _upc) {\n    require(wines[_upc].wineState == State.Shipped, \"SupplyChain::shipped - this wine has not the Shipped state\");\n    _;\n  }\n\n  // Define a modifier that checks if an wine.state of a upc is Received\n  modifier received(uint _upc) {\n    require(wines[_upc].wineState == State.Received, \"SupplyChain::received - this wine has not the Received state\");\n    _;\n  }\n\n  // Define a modifier that checks if an wine.state of a upc is ForPurchase\n  modifier forPurchase(uint _upc) {\n    require(wines[_upc].wineState == State.ForPurchase, \"SupplyChain::forPurchase - this wine has not the ForPurchase state\");\n    _;\n  }\n\n  // Define a modifier that checks if an wine.state of a upc is Purchased\n  modifier purchased(uint _upc) {\n    require(wines[_upc].wineState == State.Purchased, \"SupplyChain::purchased - this wine has not the Purchased state\");\n    _;\n  }\n\n  // Define a modifier that checks if an wine.state of a upc is Drunk\n  modifier drunk(uint _upc) {\n    require(wines[_upc].wineState == State.Drunk, \"SupplyChain::drunk - this wine has not the Drunk state\");\n    _;\n  }\n\n  constructor() public payable {\n    sku = 1;\n  }\n\n  // Define a function 'kill' if required\n  function kill() public onlyOwner {\n    selfdestruct(address(uint160(owner())));\n  }\n\n  // Define a function 'makeItem' that allows a farmer to mark an item 'Made'\n  function makeWine(uint _upc, string memory _originWinemakerName, string memory _originWinemakerInformation, string  memory _originWinemakerLatitude, string  memory _origineWinemakerLongitude, string  memory _productNotes) public onlyWinemaker whenNotPaused {\n    // Add the new item as part of Harvest\n    wines[_upc] = Wine({\n      sku: sku,\n      upc: _upc,\n      monthsAged: 0,\n      ownerID: msg.sender,\n      originWinemakerID: msg.sender,\n      originWinemakerName: _originWinemakerName,\n      originWinemakerInformation: _originWinemakerInformation,\n      originWinemakerLatitude: _originWinemakerLatitude,\n      originWinemakerLongitude: _origineWinemakerLongitude,\n      productID: sku.add(_upc),\n      productNotes: _productNotes,\n      productPrice: 0,\n      productFinalPrice: 0,\n      wineState: State.Made,\n      wineMerchantID: address(0),\n      consumerID: address(0)\n    });\n    \n    // Increment sku\n    sku = sku.add(1);\n\n    // Emit the Made event\n    emit Made(_upc);\n    \n  }\n\n\n  // Define a function 'ageWine' that allows a winemaker to mark a wine 'Aged'\n  function ageWine(uint _upc, uint monthsAged) public made(_upc) verifyCaller(wines[_upc].originWinemakerID) {\n    // Update the appropriate fields\n    wines[_upc].monthsAged = monthsAged;\n    wines[_upc].wineState = State.Aged;\n    \n    // Emit the Aged event\n    emit Aged(_upc);\n    \n  }\n  \n\n  // Define a function 'bottleWine' that allows a winemaker to mark a wine 'Bottled'\n  function bottleWine(uint _upc) public aged(_upc) verifyCaller(wines[_upc].originWinemakerID) {\n    // Update the appropriate fields\n    wines[_upc].wineState = State.Bottled;\n    \n    // Emit the Bottle event\n    emit Bottled(_upc);\n    \n  }\n\n  // Define a function 'packWine' that allows a farmer to mark an item 'Packed'\n  function packWine(uint _upc) public bottled(_upc) verifyCaller(wines[_upc].originWinemakerID) {\n    // Update the appropriate fields\n    wines[_upc].wineState = State.Packed;\n    \n    // Emit the appropriate event\n    emit Packed(_upc);\n  }\n\n\n  // Define a function 'sellWine' that allows a farmer to mark an item 'ForSale'\n  function sellWine(uint _upc, uint _price) public packed(_upc) verifyCaller(wines[_upc].originWinemakerID) {\n    // Update the appropriate fields\n    wines[_upc].wineState = State.ForSale;\n    wines[_upc].productPrice = _price;\n    \n    // Emit the appropriate event\n    emit ForSale(_upc);\n    \n  }\n\n  // Define a function 'buyWine' that allows the WineMerchant to mark an item 'Sold'\n  function buyWine(uint _upc) public payable forSale(_upc) paidEnough(wines[_upc].productPrice) checkValue(wines[_upc].productPrice) onlyWineMerchant whenNotPaused {\n    // Update the appropriate fields - ownerID, wineMerchantID, wineState\n    wines[_upc].wineState = State.Sold;\n    wines[_upc].wineMerchantID = msg.sender;\n    wines[_upc].ownerID = msg.sender;\n    \n    // Transfer money to winemaker\n    wines[_upc].originWinemakerID.transfer(wines[_upc].productPrice)    ;\n    // emit the appropriate event\n    emit Sold(_upc);\n    \n  }\n\n  // Define a function 'shipWine' that allows the distributor to mark an item 'Shipped'\n  // Use the above modifers to check if the item is sold\n  function shipWine(uint _upc) public sold(_upc) verifyCaller(wines[_upc].originWinemakerID) {\n    // Update the appropriate fields\n    wines[_upc].wineState = State.Shipped;\n    \n    // Emit the appropriate event\n    emit Shipped(_upc);\n  }\n\n  // Define a function 'receiveWine' that allows the retailer to mark an item 'Received'\n  // Use the above modifiers to check if the item is shipped\n  function receiveWine(uint _upc) public shipped(_upc) verifyCaller(wines[_upc].wineMerchantID) {\n    wines[_upc].wineState = State.Received;\n    \n    // Emit the appropriate event\n    emit Received(_upc);\n  }\n\n\n  // Define a function 'setOnPurchaseWine' that allows the retailer to mark an item 'ForPurchase'\n  // Use the above modifiers to check if the item is shipped\n  function setOnPurchaseWine(uint _upc, uint _price) public received(_upc) verifyCaller(wines[_upc].wineMerchantID) {\n    wines[_upc].wineState = State.ForPurchase;\n    wines[_upc].productFinalPrice = _price;\n    \n    // Emit the appropriate event\n    emit ForPurchase(_upc);\n  }\n\n  // Define a function 'purchaseWine' that allows the consumer to mark an item 'Purchased'\n  function purchaseWine(uint _upc) public payable forPurchase(_upc) paidEnough(wines[_upc].productFinalPrice) checkValue(wines[_upc].productFinalPrice) onlyConsumer whenNotPaused {\n    // Update the appropriate fields - ownerID, consumerID, wineState\n    wines[_upc].wineState = State.Purchased;\n    wines[_upc].consumerID = msg.sender;\n    wines[_upc].ownerID = msg.sender;\n    wines[_upc].wineMerchantID.transfer(wines[_upc].productFinalPrice);\n    \n    // Emit the appropriate event\n    emit Purchased(_upc);\n  }\n\n  // Define a function 'purchaseWine' that allows the consumer to mark an item 'Purchased'\n  function drinkWine(uint _upc) public purchased(_upc) verifyCaller(wines[_upc].consumerID) {\n    // Update the appropriate fields - ownerID, consumerID, wineState\n    wines[_upc].wineState = State.Drunk;\n\n    // Emit the appropriate event\n    emit Drunk(_upc);\n  }\n\n  // Define a function 'fetchWineBufferOne' that fetches the data\n  function fetchWineBufferOne(uint _upc) public view returns \n  (\n    uint    wineSKU,\n    uint    wineUPC,\n    address ownerID,\n    address payable originWinemakerID,\n    string  memory originWinemakerName,\n    string  memory originWinemakerInformation,\n    string  memory originWinemakerLatitude,\n    string  memory originWinemakerLongitude\n  ) \n  {\n    Wine storage wine = wines[_upc];\n    wineSKU = wine.sku;\n    wineUPC = wine.upc;\n    ownerID = wine.ownerID;\n    originWinemakerID = wine.originWinemakerID;\n    originWinemakerName = wine.originWinemakerName;\n    originWinemakerInformation = wine.originWinemakerInformation;\n    originWinemakerLatitude = wine.originWinemakerLatitude;\n    originWinemakerLongitude = wine.originWinemakerLongitude;\n  }\n\n  // Define a function 'fetchWineBufferTwo' that fetches the data\n  function fetchWineBufferTwo(uint _upc) public view returns \n  (\n    uint    wineSKU,\n    uint    wineUPC,\n    uint    productID,\n    uint    productPrice,\n    uint    productFinalPrice,\n    uint    monthsAged,\n    uint    wineState,\n    string  memory productNotes,\n    address payable wineMerchantID,\n    address payable consumerID\n  ) \n  {\n    Wine storage wine = wines[_upc];\n    wineSKU = wine.sku;\n    wineUPC = wine.upc;\n    productID = wine.productID;\n    productNotes = wine.productNotes;\n    productPrice = wine.productPrice;\n    productFinalPrice = wine.productFinalPrice;\n    monthsAged = wine.monthsAged;\n    wineState = uint(wine.wineState);\n    wineMerchantID = wine.wineMerchantID;\n    consumerID = wine.consumerID;\n  }\n}\n",
  "sourcePath": "/Users/adriendulong/Desktop/Udacity/Supply Chain Project/Project B/supply-chain-solidity/contracts/winebase/SupplyChain.sol",
  "compiler": {
    "name": "solc",
    "version": "0.5.0+commit.1d4f565a.Emscripten.clang"
  },
  "schemaVersion": "3.0.1",
  "updatedAt": "2019-04-16T11:54:21.747Z",
  "devdoc": {
    "methods": {
      "isOwner()": {
        "return": "true if `msg.sender` is the owner of the contract."
      },
      "owner()": {
        "return": "the address of the owner."
      },
      "pause()": {
        "details": "Called by a pauser to pause, triggers stopped state."
      },
      "paused()": {
        "return": "True if the contract is paused, false otherwise."
      },
      "renounceOwnership()": {
        "details": "Allows the current owner to relinquish control of the contract. It will not be possible to call the functions with the `onlyOwner` modifier anymore."
      },
      "transferOwnership(address)": {
        "details": "Allows the current owner to transfer control of the contract to a newOwner.",
        "params": {
          "newOwner": "The address to transfer ownership to."
        }
      },
      "unpause()": {
        "details": "Called by a pauser to unpause, returns to normal state."
      }
    }
  },
  "userdoc": {
    "methods": {
      "renounceOwnership()": {
        "notice": "Renouncing ownership will leave the contract without an owner, thereby removing any functionality that is only available to the owner."
      }
    }
  }
}