{
  "contractName": "WineMerchantRole",
  "abi": [
    {
      "inputs": [],
      "payable": false,
      "stateMutability": "nonpayable",
      "type": "constructor"
    },
    {
      "anonymous": false,
      "inputs": [
        {
          "indexed": true,
          "name": "account",
          "type": "address"
        }
      ],
      "name": "WineMerchantAdded",
      "type": "event"
    },
    {
      "anonymous": false,
      "inputs": [
        {
          "indexed": true,
          "name": "account",
          "type": "address"
        }
      ],
      "name": "WineMerchantRemoved",
      "type": "event"
    },
    {
      "constant": true,
      "inputs": [
        {
          "name": "account",
          "type": "address"
        }
      ],
      "name": "isWineMerchant",
      "outputs": [
        {
          "name": "",
          "type": "bool"
        }
      ],
      "payable": false,
      "stateMutability": "view",
      "type": "function"
    },
    {
      "constant": false,
      "inputs": [
        {
          "name": "account",
          "type": "address"
        }
      ],
      "name": "addWineMerchant",
      "outputs": [],
      "payable": false,
      "stateMutability": "nonpayable",
      "type": "function"
    },
    {
      "constant": false,
      "inputs": [],
      "name": "renounceWineMerchant",
      "outputs": [],
      "payable": false,
      "stateMutability": "nonpayable",
      "type": "function"
    }
  ],
  "bytecode": "0x608060405234801561001057600080fd5b506100293361002e640100000000026401000000009004565b6101e8565b61004f81600061009564010000000002610421179091906401000000009004565b8073ffffffffffffffffffffffffffffffffffffffff167f6bc466ddf8bd40475fdbc6f9b2de8c103d9c1cebcdf26fba81a42b5f5ce88f1e60405160405180910390a250565b600073ffffffffffffffffffffffffffffffffffffffff168173ffffffffffffffffffffffffffffffffffffffff16141515156100d157600080fd5b6100ea8282610154640100000000026401000000009004565b1515156100f657600080fd5b60018260000160008373ffffffffffffffffffffffffffffffffffffffff1673ffffffffffffffffffffffffffffffffffffffff16815260200190815260200160002060006101000a81548160ff0219169083151502179055505050565b60008073ffffffffffffffffffffffffffffffffffffffff168273ffffffffffffffffffffffffffffffffffffffff161415151561019157600080fd5b8260000160008373ffffffffffffffffffffffffffffffffffffffff1673ffffffffffffffffffffffffffffffffffffffff16815260200190815260200160002060009054906101000a900460ff16905092915050565b6104fd806101f76000396000f3fe608060405260043610610057576000357c0100000000000000000000000000000000000000000000000000000000900463ffffffff16806382b489f81461005c578063b38e69e514610073578063e196768e146100dc575b600080fd5b34801561006857600080fd5b5061007161012d565b005b34801561007f57600080fd5b506100c26004803603602081101561009657600080fd5b81019080803573ffffffffffffffffffffffffffffffffffffffff169060200190929190505050610138565b604051808215151515815260200191505060405180910390f35b3480156100e857600080fd5b5061012b600480360360208110156100ff57600080fd5b81019080803573ffffffffffffffffffffffffffffffffffffffff169060200190929190505050610155565b005b6101363361022a565b565b600061014e82600061028490919063ffffffff16565b9050919050565b61015e33610138565b151561021e576040517f08c379a00000000000000000000000000000000000000000000000000000000081526004018080602001828103825260518152602001807f57696e654d65726368616e74526f6c653a3a6f6e6c7957696e654d657263686181526020017f6e74202d206f6e6c7920612077696e65206d65726368616e742063616e20706581526020017f72666f726d207468697320616374696f6e00000000000000000000000000000081525060600191505060405180910390fd5b61022781610318565b50565b61023e81600061037290919063ffffffff16565b8073ffffffffffffffffffffffffffffffffffffffff167fefc5acff2602ca17d8040a490446dd5efbaea2995454305bd2f0af1a10bf693760405160405180910390a250565b60008073ffffffffffffffffffffffffffffffffffffffff168273ffffffffffffffffffffffffffffffffffffffff16141515156102c157600080fd5b8260000160008373ffffffffffffffffffffffffffffffffffffffff1673ffffffffffffffffffffffffffffffffffffffff16815260200190815260200160002060009054906101000a900460ff16905092915050565b61032c81600061042190919063ffffffff16565b8073ffffffffffffffffffffffffffffffffffffffff167f6bc466ddf8bd40475fdbc6f9b2de8c103d9c1cebcdf26fba81a42b5f5ce88f1e60405160405180910390a250565b600073ffffffffffffffffffffffffffffffffffffffff168173ffffffffffffffffffffffffffffffffffffffff16141515156103ae57600080fd5b6103b88282610284565b15156103c357600080fd5b60008260000160008373ffffffffffffffffffffffffffffffffffffffff1673ffffffffffffffffffffffffffffffffffffffff16815260200190815260200160002060006101000a81548160ff0219169083151502179055505050565b600073ffffffffffffffffffffffffffffffffffffffff168173ffffffffffffffffffffffffffffffffffffffff161415151561045d57600080fd5b6104678282610284565b15151561047357600080fd5b60018260000160008373ffffffffffffffffffffffffffffffffffffffff1673ffffffffffffffffffffffffffffffffffffffff16815260200190815260200160002060006101000a81548160ff021916908315150217905550505056fea165627a7a72305820319b98c012050f829bd7d42e1384b20005f4c0c258930982b12210c2587026430029",
  "source": "pragma solidity ^0.5.0;\n\n// Import the library 'Roles'\nimport \"./Roles.sol\";\n\n// Define a contract 'WineMerchantRole' to manage this role - add, remove, check\ncontract WineMerchantRole {\n  using Roles for Roles.Role;\n\n  // Define 2 events, one for Adding, and other for Removing\n  event WineMerchantAdded(address indexed account);\n  event WineMerchantRemoved(address indexed account);\n\n  // Define a struct 'wineMerchants' by inheriting from 'Roles' library, struct Role\n  Roles.Role private wineMerchants;\n\n  // In the constructor make the address that deploys this contract the 1st wine merchant\n  constructor() public {\n    _addWineMerchant(msg.sender);\n  }\n\n  // Define a modifier that checks to see if msg.sender has the appropriate role\n  modifier onlyWineMerchant() {\n    require(isWineMerchant(msg.sender), \"WineMerchantRole::onlyWineMerchant - only a wine merchant can perform this action\");\n    _;\n  }\n\n  // Define a function 'isWineMerchant' to check this role\n  function isWineMerchant(address account) public view returns (bool) {\n    return wineMerchants.has(account);\n  }\n\n  // Define a function 'addWineMerchant' that adds this role\n  function addWineMerchant(address account) public onlyWineMerchant {\n    _addWineMerchant(account);\n  }\n\n  // Define a function 'renounceWineMerchant' to renounce this role\n  function renounceWineMerchant() public {\n    _removeWineMerchant(msg.sender);\n  }\n\n  // Define an internal function '_addWineMerchant' to add this role, called by 'addWineMerchant'\n  function _addWineMerchant(address account) internal {\n    wineMerchants.add(account);\n    emit WineMerchantAdded(account);\n  }\n\n  // Define an internal function '_removeWineMerchant' to remove this role, called by 'removeWineMerchant'\n  function _removeWineMerchant(address account) internal {\n    wineMerchants.remove(account);\n    emit WineMerchantRemoved(account);\n  }\n}",
  "sourcePath": "/Users/adriendulong/Desktop/Udacity/Supply Chain Project/Project B/supply-chain-solidity/contracts/wineaccesscontrol/WineMerchantRole.sol",
  "compiler": {
    "name": "solc",
    "version": "0.5.0+commit.1d4f565a.Emscripten.clang"
  },
  "schemaVersion": "3.0.1",
  "updatedAt": "2019-04-15T12:01:28.600Z",
  "devdoc": {
    "methods": {}
  },
  "userdoc": {
    "methods": {}
  }
}