{
  "contractName": "WinemakerRole",
  "abi": [
    {
      "inputs": [],
      "payable": false,
      "stateMutability": "nonpayable",
      "type": "constructor"
    },
    {
      "anonymous": false,
      "inputs": [
        {
          "indexed": true,
          "name": "account",
          "type": "address"
        }
      ],
      "name": "WinemakerAdded",
      "type": "event"
    },
    {
      "anonymous": false,
      "inputs": [
        {
          "indexed": true,
          "name": "account",
          "type": "address"
        }
      ],
      "name": "WinemakerRemoved",
      "type": "event"
    },
    {
      "constant": true,
      "inputs": [
        {
          "name": "account",
          "type": "address"
        }
      ],
      "name": "isWinemaker",
      "outputs": [
        {
          "name": "",
          "type": "bool"
        }
      ],
      "payable": false,
      "stateMutability": "view",
      "type": "function"
    },
    {
      "constant": false,
      "inputs": [
        {
          "name": "account",
          "type": "address"
        }
      ],
      "name": "addWinemaker",
      "outputs": [],
      "payable": false,
      "stateMutability": "nonpayable",
      "type": "function"
    },
    {
      "constant": false,
      "inputs": [],
      "name": "renounceWinemaker",
      "outputs": [],
      "payable": false,
      "stateMutability": "nonpayable",
      "type": "function"
    }
  ],
  "bytecode": "0x608060405234801561001057600080fd5b506100293361002e640100000000026401000000009004565b6101e8565b61004f81600061009564010000000002610371179091906401000000009004565b8073ffffffffffffffffffffffffffffffffffffffff167f6aff2d1ad0280d73c0aeb6b7f6a5efcfde859651f09233c1356f94d0116ea66260405160405180910390a250565b600073ffffffffffffffffffffffffffffffffffffffff168173ffffffffffffffffffffffffffffffffffffffff16141515156100d157600080fd5b6100ea8282610154640100000000026401000000009004565b1515156100f657600080fd5b60018260000160008373ffffffffffffffffffffffffffffffffffffffff1673ffffffffffffffffffffffffffffffffffffffff16815260200190815260200160002060006101000a81548160ff0219169083151502179055505050565b60008073ffffffffffffffffffffffffffffffffffffffff168273ffffffffffffffffffffffffffffffffffffffff161415151561019157600080fd5b8260000160008373ffffffffffffffffffffffffffffffffffffffff1673ffffffffffffffffffffffffffffffffffffffff16815260200190815260200160002060009054906101000a900460ff16905092915050565b6104fc806101f76000396000f3fe608060405260043610610056576000357c0100000000000000000000000000000000000000000000000000000000900463ffffffff16806264a0a31461005b57806376410cb5146100ac578063a7a2d35e146100c3575b600080fd5b34801561006757600080fd5b506100aa6004803603602081101561007e57600080fd5b81019080803573ffffffffffffffffffffffffffffffffffffffff16906020019092919050505061012c565b005b3480156100b857600080fd5b506100c1610201565b005b3480156100cf57600080fd5b50610112600480360360208110156100e657600080fd5b81019080803573ffffffffffffffffffffffffffffffffffffffff16906020019092919050505061020c565b604051808215151515815260200191505060405180910390f35b6101353361020c565b15156101f5576040517f08c379a000000000000000000000000000000000000000000000000000000000815260040180806020018281038252604c8152602001807f57696e656d616b6572526f6c653a3a6f6e6c7957696e656d616b6572202d205981526020017f6f75206e656564207468652077696e656d616b657220726f6c6520746f20646f81526020017f207468697320616374696f6e000000000000000000000000000000000000000081525060600191505060405180910390fd5b6101fe81610229565b50565b61020a33610283565b565b60006102228260006102dd90919063ffffffff16565b9050919050565b61023d81600061037190919063ffffffff16565b8073ffffffffffffffffffffffffffffffffffffffff167f6aff2d1ad0280d73c0aeb6b7f6a5efcfde859651f09233c1356f94d0116ea66260405160405180910390a250565b61029781600061042190919063ffffffff16565b8073ffffffffffffffffffffffffffffffffffffffff167fc4aab0426e55302866fc0731265c0e1822c38784d55adc66130827772c58186260405160405180910390a250565b60008073ffffffffffffffffffffffffffffffffffffffff168273ffffffffffffffffffffffffffffffffffffffff161415151561031a57600080fd5b8260000160008373ffffffffffffffffffffffffffffffffffffffff1673ffffffffffffffffffffffffffffffffffffffff16815260200190815260200160002060009054906101000a900460ff16905092915050565b600073ffffffffffffffffffffffffffffffffffffffff168173ffffffffffffffffffffffffffffffffffffffff16141515156103ad57600080fd5b6103b782826102dd565b1515156103c357600080fd5b60018260000160008373ffffffffffffffffffffffffffffffffffffffff1673ffffffffffffffffffffffffffffffffffffffff16815260200190815260200160002060006101000a81548160ff0219169083151502179055505050565b600073ffffffffffffffffffffffffffffffffffffffff168173ffffffffffffffffffffffffffffffffffffffff161415151561045d57600080fd5b61046782826102dd565b151561047257600080fd5b60008260000160008373ffffffffffffffffffffffffffffffffffffffff1673ffffffffffffffffffffffffffffffffffffffff16815260200190815260200160002060006101000a81548160ff021916908315150217905550505056fea165627a7a723058201a21610da820a863239ef575aa5dac0c3e0866ccae473c632a24b737bb1fd1a40029",
  "source": "pragma solidity ^0.5.0;\n\n// Import the library 'Roles'\nimport \"./Roles.sol\";\n\n// Define a contract 'FarmerRole' to manage this role - add, remove, check\ncontract WinemakerRole {\n  using Roles for Roles.Role;\n\n  // Define 2 events, one for Adding, and other for Removing\n  event WinemakerAdded(address indexed account);\n  event WinemakerRemoved(address indexed account);\n\n  // Define a struct 'winemakers' by inheriting from 'Roles' library, struct Role\n  Roles.Role private winemakers;\n\n  // In the constructor make the address that deploys this contract the 1st winemaker\n  constructor() public {\n    _addWinemaker(msg.sender);\n  }\n\n  // Define a modifier that checks to see if msg.sender has the appropriate role\n  modifier onlyWinemaker() {\n    require(isWinemaker(msg.sender), \"WinemakerRole::onlyWinemaker - You need the winemaker role to do this action\");\n    _;\n  }\n\n  // Define a function 'isWinemaker' to check this role\n  function isWinemaker(address account) public view returns (bool) {\n    return winemakers.has(account);\n  }\n\n  // Define a function 'addWinemaker' that adds this role\n  function addWinemaker(address account) public onlyWinemaker {\n    _addWinemaker(account);\n  }\n\n  // Define a function 'renounceWinemaker' to renounce this role\n  function renounceWinemaker() public {\n    _removeWinemaker(msg.sender);\n  }\n\n  // Define an internal function '_addWinemaker' to add this role, called by 'addWinemaker'\n  function _addWinemaker(address account) internal {\n    winemakers.add(account);\n    emit WinemakerAdded(account);\n  }\n\n  // Define an internal function '_removeWinemaker' to remove this role, called by 'renounceWinemaker'\n  function _removeWinemaker(address account) internal {\n    winemakers.remove(account);\n    emit WinemakerRemoved(account);\n  }\n}",
  "sourcePath": "/Users/adriendulong/Desktop/Udacity/Supply Chain Project/Project B/supply-chain-solidity/contracts/wineaccesscontrol/WinemakerRole.sol",
  "compiler": {
    "name": "solc",
    "version": "0.5.0+commit.1d4f565a.Emscripten.clang"
  },
  "schemaVersion": "3.0.1",
  "updatedAt": "2019-04-15T12:01:28.601Z",
  "devdoc": {
    "methods": {}
  },
  "userdoc": {
    "methods": {}
  }
}